:020000040800F2
:1000000020060024B1020008D72A00082F29000882
:10001000D52A0008BD030008E134000800000000F4
:100020000000000000000000000000001D2D00087E
:10003000D905000800000000D92A00081F2D00087B
:10004000CB020008CB020008CB020008CB0200085C
:10005000CB020008CB020008CB020008CB0200084C
:10006000CB020008CB020008CB020008CB0200083C
:10007000CB020008CB020008CB020008CB0200082C
:10008000CB020008CB020008CB020008CB0200081C
:10009000CB020008CB020008CB020008CB0200080C
:1000A000CB020008CB020008CB020008CB020008FC
:1000B000CB020008CB020008CB020008CB020008EC
:1000C000CB020008CB020008CB020008CB020008DC
:1000D000CB020008CB020008CB020008CB020008CC
:1000E000CB020008CB02000800000000CB02000891
:1000F000CB020008CB020008CB020008CB020008AC
:10010000CB020008CB020008CB020008CB0200089B
:10011000AD2E0008B92E0008CB020008CB02000863
:10012000CB020008CB020008CB020008CB0200087B
:10013000CB020008CB020008CB020008CB0200086B
:1001400000000000000000000000000000000000AF
:10015000CB020008CB020008CB020008CB0200084B
:10016000CB020008CB020008CB020008CB0200083B
:10017000CB020008CB020008CB020008CB0200082B
:10018000CB020008CB020008CB020008CB0200081B
:10019000CB020008CB020008CB020008CB0200080B
:1001A000CB020008CB020008CB020008CB020008FB
:1001B000CB020008CB020008CB020008CB020008EB
:1001C000CB020008CB020008CB020008CB020008DB
:1001D000CB020008CB020008CB020008CB020008CB
:1001E000CB020008CB020008CB020008CB020008BB
:1001F000CB020008CB020008CB020008CB020008AB
:10020000CB020008CB020008CB020008CB0200089A
:10021000CB020008CB020008CB020008CB0200088A
:10022000CB020008CB020008CB020008000000004F
:10023000CB020008CB02000800000000CB0200083F
:10024000CB020008CB020008CB020008CB0200085A
:10025000CB020008CB020008CB020008CB0200084A
:10026000CB020008CB020008CB020008CB0200083A
:10027000CB020008CB020008CB02000800000000FF
:10028000CB020008CB020008CB02000800000000EF
:1002900000000000CB020008DFF810D000F07CF86E
:1002A0000048004771350008AFF3008020060024A5
:1002B0000648804706480047FEE7FEE7FEE7FEE700
:1002C000FEE7FEE7FEE7FEE7FEE7FEE7C92D0008D2
:1002D000990200082DE9F05F0546002092469B46F2
:1002E00088460646814640241BE02846414647464C
:1002F000224600F041F853465A46C01A914110D3A5
:1003000011461846224600F028F82D1A67EB01081E
:100310004F4622460120002100F01FF817EB00098C
:100320004E41201EA4F10104DFDC484631462A4636
:100330004346BDE8F09FD2B201E000F8012B491E10
:10034000FBD270470022F6E710B513460A46044672
:100350001946FFF7F0FF204610BD202A04DB203AA3
:1003600000FA02F1002070479140C2F1200320FA08
:1003700003F3194390407047202A04DB203A21FA06
:1003800002F00021704721FA02F3D040C2F12002AE
:100390009140084319467047064C074D06E0E06857
:1003A00040F0010394E8070098471034AC42F6D3BC
:1003B000FFF776FFC0350008E0350008FEE70000D3
:1003C000294A016891423AD0274A1832914236D0E0
:1003D000254A3032914232D0234A483291422ED0BF
:1003E000214A603291422AD01F4A7832914226D067
:1003F0001D4A9032914222D01B4AA83291421ED00F
:100400001A4A91421BD0194A1832914217D0174A02
:100410003032914213D0154A483291420FD0134ADC
:10042000603291420BD0114A7832914207D00F4A84
:100430009032914203D00D4AA832914211D1CAB2F2
:100440001823103AB2FBF3F26FF30901032A02F00A
:100450000703074AD25CC26500D9091D81650846B9
:10046000704721F0FF01F9E710000240100402403C
:10047000A635000830B5224A012301689142CAB26C
:100480001BD01F4C1434A14217D01D4C2834A1425C
:1004900013D01B4C3C34A1420FD0194C5034A14214
:1004A0000BD0174C6434A14207D0154C7834A142CC
:1004B00003D0134C8C34A1420CD11421114C083AB6
:1004C000B2FBF1F10F4A803201F01F0504EB81010C
:1004D000AB4010E00C4D1824103A0D44B2FBF4F17F
:1004E000A82D00D80831094A01F01F0402EB810150
:1004F000064AA3408032603080E80E0030BD000024
:100500000854025800580258F0FBFDBF0008024092
:1005100010B50279531E072B2DD8174C0168A14244
:100520001BD0154C1434A14217D0134C2834A142CF
:1005300013D0114C3C34A1420FD00F4C5034A14287
:100540000BD00D4C6434A14207D00B4C7834A1423F
:1005500003D0094C8C34A14203D10849074C4431E3
:1005600002E00749064C443104EB8202C0E91B213A
:1005700001219940416710BD08540258FC580258A7
:10058000FC08024010B583694FF0C074826A0146CE
:10059000002053B1B3F5005F15D072B1012A0CD021
:1005A000022A0AD0032A09D104E01AB1012A06D08E
:1005B000022A03D1C96AC90100D5012010BDC96A48
:1005C000A142FAD010BD002AF7D0012AF2D0022AA7
:1005D000F3D0032AF3D010BD704770472DE9F05FC8
:1005E00028B190F83510022904D0802141650120FE
:1005F000BDE8F09F904C904B0168183C18338E4A30
:10060000DFF83C92A1428D4CDFF838E28E4FDFF8E4
:100610003CB2DFF83CA28F4D8F4E31D091422FD0AB
:1006200099422DD0A1422BD0494529D0714527D0E0
:10063000B94225D0DFF810C20CF1180C61451FD06B
:10064000DFF808C2ACF1600C614519D0DFF8FCC1DD
:10065000ACF1480C614513D0DFF8F0C1ACF1300CBF
:1006600061450DD0DFF8E4C1ACF1180C614507D04D
:10067000594505D0514503D0A94201D0B1422CD1F2
:10068000DFF8B4C14FF0040880F83580ACF1180CE5
:1006900061451DD091421BD0994219D0A14217D07B
:1006A000494515D0714513D0B94211D0664818306C
:1006B00081420DD065486038814209D0634848388E
:1006C000814205D061483038814201D05F481838F6
:1006D000086820F001000860ABE0D1F800C02CF001
:1006E0000E08DFF854C1C1F80080ACF1180C0168A5
:1006F000614527D0914225D0994223D0A14221D0F3
:1007000049451FD071451DD0B9421BD0DFF838C113
:100710000CF1180C614515D0DFF830C1ACF1600C5C
:1007200061450FD0DFF824C1ACF1480C614509D018
:10073000DFF818C1ACF1300C614503D0DFF80CC113
:10074000ACF1180CD1F800C02CF0010CC1F800C0BD
:10075000DFF8E4804FF0010C0168A8F1180841456A
:1007600046D0914244D0994242D0A14240D049451E
:100770003ED071453CD0B9423AD0334A183291420A
:1007800036D0324A603A914232D0304A483A9142A9
:100790002ED02E4A303A91422AD02C4A183A914211
:1007A00026D0594524D0514522D0A94220D0B1426B
:1007B0001ED02A4A91421BD0284A1432914217D0A7
:1007C000264A2832914213D0244A3C3291420FD01B
:1007D000224A503291420BD0204A6432914207D0D3
:1007E0001E4A7832914203D01C4A8C32914218D171
:1007F000016E0A6822F480720A6090F85C20816DB4
:1008000002F01F020CFA02F24A60D0E919124A60A3
:10081000C16E31B10A6822F480720A60D0E91C12FC
:100820004A600022016D80F8342080F835C001B1A3
:1008300088470020DCE60000280002405800024003
:100840007000024088000240A00002407004024094
:1008500088040240A0040240B80402400854025830
:100860002DE9F05F044600F013FB002C07467DD015
:10087000E34E022120684FF00308DFF888934FF021
:100880000005DFF884A3B042DFF880B334D0DC4A3F
:100890001832904230D048452ED050452CD0584583
:1008A0002AD0DA4A1832904226D0D84A30329042C2
:1008B00022D0D64A483290421ED0D54A90421BD010
:1008C000D34A1832904217D0D14A3032904213D0D6
:1008D000CF4A483290420FD0CD4A603290420BD07E
:1008E000CB4A7832904207D0C94A9032904203D026
:1008F000C74AA83290427DD184F8345084F835102C
:10090000B0422ED0BE49183188422AD0484528D05E
:10091000504526D0584524D0BC491831884220D0B3
:10092000BA49303188421CD0B8494831884218D081
:10093000B749884215D0B6491831884211D0B44918
:10094000303188420DD0B2494831884209D0B0498F
:100950006031884205D0AE497831884201D0AC4937
:100960009031016821F00101016008E027E100BF3A
:1009700000F08EFAC01B052801D920211CE1206857
:100980000068C007F4D104F108002168D4E9053CEF
:100990008E4685C809681043D4E907281F43636A57
:1009A00038439C4F40EA0C001043394040EA0800AD
:1009B000042B40EA010003D1D4E90B121143084390
:1009C000954909686FF30F01B1F1005F0FD36168BA
:1009D000A1F12902052A08D9163A032A05D9083AAD
:1009E000012A02D94F39032901D840F48010CEF8EA
:1009F000000000E023E02068676A4069042F20F0CF
:100A0000070047EA00070DD1D4E90A01074349B1BD
:100A10002046FFF7B7FD28B140206065012184F82A
:100A20003510CCE0206847612046FFF7C9FC94F8F8
:100A30005C203F2102F01F029140816054E0774A20
:100A400090421BD0754B1433984217D0734B283308
:100A5000984213D0714B3C3398420FD06F4B5033B8
:100A600098420BD06D4B6433984207D06B4B783370
:100A7000984203D0694B8C3398427DD1684B84F8FF
:100A8000345084F835100168A26801EA030E402A48
:100A900073D0802A72D00022D4E90378D4E90531DA
:100AA00042EAD70242EAD8085C4AD4E9077C48EA1D
:100AB000D30848EAD10141EAD701524241EA1C1168
:100AC000142341EA0E01016020681044B0FBF3F0EA
:100AD0008000E0652046FFF773FC94F85C2001215C
:100AE00002F01F02914041602068B04257D0444953
:100AF0001831884253D0484551D050454FD05845C1
:100B00004DD042491831884249D04049303188425D
:100B100045D03E494831884241D03D4988423ED087
:100B20003B49183188423AD039493031884236D071
:100B300037494831884232D03549603188422ED019
:100B40003349783188422AD031499031884226D0C1
:100B50002F49A831884222D0304988421FD02F49DE
:100B6000143188421BD02D492831884217D02B4997
:100B70003C31884213D002E01DE017E018E027491D
:100B8000503188420BD025496431884207D023492F
:100B90007831884203D021498C31884229D12046BE
:100BA000FFF768FCA06880280CD00CE0102273E7E7
:100BB0004FF4804270E74021616584F83580012060
:100BC000BDE8F09F6560216E20790860D4E91901C5
:100BD00041606068401E072808D82046FFF798FC4F
:100BE000E06E0560D4E91C01416002E0E56625671E
:100BF00065670120656584F835000020E0E70000A6
:100C000010000240400002405800024070000240C4
:100C1000100402403F8010FE0010005C085402588F
:100C20000F00FEFF70B5044600F032F90546601C67
:100C300002D004480078044400F02AF9401BA04286
:100C4000FAD370BD000000242DE9FC4F01257E4C35
:100C500000234FF0030A4FF0B04E4FF00F0BEBE0C4
:100C600005FA03F637403A0077D04F68012F05D0D8
:100C7000022F03D0112F01D0122F1AD187684FEA0B
:100C80004308D1F80CC00AFA08F927EA09070CFA58
:100C900008FC4CEA070CC0F808C0476891F804C08B
:100CA000B743CCF3001C0CFA03FC4CEA070CC0F869
:100CB00004C0C6684FEA430CD1F80880E1460AFA3E
:100CC0000CF7BE43019708FA09F848EA0608C0F88D
:100CD0000C804E68022E01D0122E12D1DE084FEA8F
:100CE000437C00EB860600960F69366A4FEADC6C9F
:100CF0000BFA0CF807FA0CF726EA08063743009EB1
:100D000037620E790768DDF804C006F0030606FABC
:100D100009F627EA0C073E4306604E68F6001CD52C
:100D20004A4E376847F00207376036689F0706F07B
:100D30000206009623F0030606F1B046B1463F0FC7
:100D4000D6F80864DFF808810BFA07FC404526EA6C
:100D50000C0603D14FF0000C41E06CE0DFF8F4C06A
:100D6000604502D14FF0010C39E0DFF8ECC060457E
:100D700002D14FF0020C32E0DFF8E0C0604502D152
:100D80004FF0030C2BE0DFF8D8C0604502D14FF0E4
:100D9000040C24E0DFF8CCC0604502D14FF0050C14
:100DA0001DE0DFF8C4C0604502D14FF0060C16E02C
:100DB000DFF8B8C0604502D14FF0070C0FE0DFF854
:100DC000B0C0604502D14FF0080C08E0DFF8A4C0C5
:100DD000604502D14FF0090C01E04FF00A0C0CFA0B
:100DE00007FC4CEA060CC9F808C426684F6826EAD6
:100DF0000206FF0300D51643266066684F6826EAA0
:100E00000206BF0300D516436660D1F804C07646DB
:100E1000DEF800705FEACC2C27EA020700D5174302
:100E20003760D1F804C077685FEA8C2C27EA0207A4
:100E300000D5174377605B1C0A681746DA407FF4D9
:100E40000FAFBDE8FC8F000080000058F44402584A
:100E5000000002580004025800080258000C025812
:100E6000001002580014025800180258001C0258C2
:100E700000200258002402580AB181617047090419
:100E8000FBE7000001480068000C70470010005CA0
:100E90000148806870470000000000240248816813
:100EA000027811448160704700000024032010B5CF
:100EB00000F086F800F0E8FF0F4A10491468136844
:100EC000C4F3032203F00F038A5CC95C02F01F0223
:100ED00001F01F01D0400A4A20FA01F111600949CE
:100EE0000860002000F010F808B1012010BD00F0EB
:100EF0002BF8002010BD000018440258AE35000841
:100F0000100000240C00002470B50D4D0446287814
:100F1000A0B14FF47A71B1FBF0F00A490968B1FB56
:100F2000F0F001F0D1FA48B9102C07D20022214686
:100F3000501E00F025F800206C6070BD012070BDCF
:100F4000000000240C000024054808B5016841F0A9
:100F500002010160006800F00200009008BD00007E
:100F6000F4440258002809DB410900F01F028900FF
:100F7000012001F1E0219040C1F80001704700001C
:100F80000E4BF0B41B680D46C3F30223C3F10706F2
:100F9000042E00D90426191D072901D2002300E0E0
:100FA000DB1E012404FA06F19C40491E2940641E00
:100FB000994014402143F0BC02F09CBA0CED00E0D3
:100FC000064900F0070210B54FF6FF040868044B0D
:100FD000204040EA02201843086010BD0CED00E0FC
:100FE0000000FA05134970B50A68D243520705D5C7
:100FF000096801F00701814213D118E00A6822F064
:10100000070202430A60FFF743FF0A4D4FF47A7666
:101010000446083D07E000BFFFF73AFF001BB0425F
:1010200001D9012070BD2868C0438004F4D4002099
:1010300070BD00000C48025810B500F0DFFE0549F5
:101040000968054AC1F30211515C01F01F01C84053
:1010500010BD000020440258AE350008494930B5A3
:10106000484C0B1D0A68143409681D68246802F096
:101070000303C5F30012C1F30531C4F3CC04002906
:1010800014FB02F200EE102AF8EE400A75D03F4A37
:101090009FED3D1AB7EE000A6BB1DFED3D1A012B53
:1010A00001D0022B64D002EE101A1168F8EE422A29
:1010B00081EEA22A21E0334C283C23689B0612D5FE
:1010C000344B246801EE901A1168C4F3C104F8EEA1
:1010D000612AE34001EE903AC1F30801F8EE611A8B
:1010E00081EEA22A0BE001EE901ADFED2B2A00BF61
:1010F000F8EE611A116882EEA12AC1F3080101EE2F
:10110000901A1168F8EE611A40EE811A71EE800AA9
:1011100062EE200AC1F3462101EE101AB8EE411A20
:1011200031EE001AC0EE811ABCEEE11A80ED001A11
:101130001168C1F3064101EE101AB8EE411A31EE02
:10114000001AC0EE811ABCEEE11A80ED011A116896
:10115000C1F3066101EE101AB8EE411A31EE000A31
:1011600080EE801ABCEEC10A80ED020A30BD04E0B8
:1011700001EE901ADFED092ABAE700210160416013
:101180008160F3E7284402580000003938440258CF
:101190000024744A0090D0030024744C0024F44AC4
:1011A000494930B5484C0B1D0A681C3409681D6854
:1011B000246802F00303C5F30022C1F30551C4F310
:1011C000CC04002914FB02F200EE102AF8EE400ACB
:1011D00075D03F4A9FED3D1AB7EE000A6BB1DFEDC7
:1011E0003D1A012B01D0022B64D002EE101A1168B7
:1011F000F8EE422A81EEA22A21E0334C283C2368F3
:101200009B0612D5344B246801EE901A1168C4F382
:10121000C104F8EE612AE34001EE903AC1F30801FF
:10122000F8EE611A81EEA22A0BE001EE901ADFEDD2
:101230002B2A00BFF8EE611A116882EEA12AC1F3D1
:10124000080101EE901A1168F8EE611A40EE811A59
:1012500071EE800A62EE200AC1F3462101EE101AF7
:10126000B8EE411A31EE001AC0EE811ABCEEE11A56
:1012700080ED001A1168C1F3064101EE101AB8EEB4
:10128000411A31EE001AC0EE811ABCEEE11A80ED6F
:10129000011A1168C1F3066101EE101AB8EE411A85
:1012A00031EE000A80EE801ABCEEC10A80ED020A1F
:1012B00030BD04E001EE901ADFED092ABAE7002103
:1012C000016041608160F3E7284402580000003962
:1012D000404402580024744A0090D0030024744C07
:1012E0000024F44A2DE9FC5F044650F8241B002535
:1012F00000902E460801FE4FDFF8F8831DD5606E82
:1013000050B1B0F5801F0CD0B0F5001F0ED0B0F575
:10131000401F1DD001250FE0386840F400303860D0
:1013200016E00221201D01F0D9FB03E00098022104
:1013300001F064FC05000BD02E462088C00523D5A3
:10134000606D05281ED2DFE800F00C11161B1B0093
:10135000626ED8F8001021F440111143C8F8001053
:10136000EBE7386840F40030386009E00021201DC8
:1013700001F0B4FB03E00098002101F03FFC0546BA
:101380006DB100E001252E462088800528D5A06D8E
:1013900080281ED00CDC90B140280ED114E0626D84
:1013A000D8F8001021F007011143C8F80010EBE74E
:1013B000C02813D0B0F5807F10D001250FE0386829
:1013C00040F40030386009E00021201D01F086FB68
:1013D00003E00098002101F011FC054695B12E466E
:1013E0002088DFF81093400509F108092CD5D4F8BE
:1013F000A400B0F5800F20D00DDCA0B1B0F5001F27
:101400000FD115E0A26DD8F8001021F4E07111435E
:10141000C8F80010E4E7B0F5C00F13D0B0F5000F26
:1014200010D001250FE0386840F40030386009E042
:101430000021201D01F052FB03E00098002101F083
:10144000DDFB054675B12E46208800052DD5D4F864
:10145000A800B0F1007F21D00EDCA8B1B0F1807FF0
:1014600010D116E0D4F8A420D9F8001021F46001BE
:101470001143C9F80010E7E7B0F1407F13D0B0F195
:10148000806F10D001250FE0386840F400303860DC
:1014900009E00021201D01F021FB03E0009800215C
:1014A00001F0ACFB05466DB12E46206880011FD5CA
:1014B000A06CD8B110280FD0202812D0302815D019
:1014C000012514E0D4F8A820D9F8001021F0E0613B
:1014D0001143C9F80010E8E7386840F4003038607C
:1014E00004E00221201D01F0F9FA05466DB12E46F7
:1014F0002088C0042BD5E06DB0F5005F20D00DDC56
:10150000A0B1B0F5805F0FD115E07A48A26C001F42
:10151000016821F0300111430160E9E7B0F5405F57
:1015200013D0B0F5804F10D001250FE0386840F49B
:101530000030386009E00021201D01F0CFFA03E0FF
:101540000098002101F05AFB054685B12E462088FF
:10155000800429D5206EB0F5403F23D010DC08B3BD
:10156000B0F5803F14D0B0F5003F0FD115E0E26D2B
:10157000D8F8001021F4E0411143C8F80010E6E764
:10158000B0F5802F0ED0B0F5A02F0BD001250AE0CA
:101590000121201D01F0A2FA03E00098012101F0D1
:1015A0002DFB05468DB12E46208840042AD5D4F85F
:1015B000AC00B0F1405F23D010DC08B3B0F1805F25
:1015C00014D0B0F1005F0FD115E0226ED8F80010F2
:1015D00021F4E0211143C8F80010E5E7B0F1804F95
:1015E0000ED0B0F1A04F0BD001250AE00121201D43
:1015F00001F074FA03E00098012101F0FFFA0546BA
:101600006DB12E46208800041FD5E06ED8B1B0F130
:10161000805F0ED0B0F1005F10D0012514E0D4F847
:10162000AC20D9F8001021F0E0411143C9F80010B6
:10163000E8E7386840F40030386004E00121201DFC
:1016400001F04CFA05466DB12E462068C0011ED54A
:10165000606CD0B101280ED0022811D0032814D01C
:10166000012513E0E26ED8F8001021F0405111433B
:10167000C8F80010E9E7386840F40030386004E04A
:101680000221201D01F02AFA054685B12E46206868
:10169000DFF85CB04002ABF11C0B57D5164801686F
:1016A00041F480710160FFF7F3FB82460EE01148C0
:1016B000626C001F016821F0030111430160E6E73D
:1016C000FFF7E6FBA0EB0A0064283DD80A48006853
:1016D000C005F5D57DBBDFF81CA0B4F8B0100AF149
:1016E000200ADAF8000001F4407100F4407005E0CF
:1016F0002C4402585044025800480258884211D0E5
:10170000DAF80010DAF8002021F4407142F4803257
:10171000CAF80020DAF8002022F48032CAF800204B
:10172000CAF80010D4F8B000B0F5807F21D1FFF7DF
:10173000AFFB019019E008E0FFF7AAFB0199411AFD
:1017400041F28830814210D903252E462078DFF8F7
:1017500030A4C0073DD0A06F182838D026DC80B355
:10176000082829D0102825D12CE0DAF800008007BD
:10177000E2D5D4F8B010C1F30120032858460DD0AB
:10178000016821F47C510160B4F8B020DAF800104F
:10179000C2F30B021143CAF80010D7E7F94A0368F5
:1017A00002EA111223F47C511143ECE720280ED0F9
:1017B00028280CD001250BE00121201D01F08EF915
:1017C00004E004E00098012101F018FA05465DB13B
:1017D0002E46207880071ED5606F062819D2DFE8D4
:1017E00000F0160C11161616A26FDAF8001021F090
:1017F00038011143CAF80010EBE70121201D01F068
:101800006DF903E00098012101F0F8F9054675B182
:1018100000E001252E46207840071FD5D4F890001F
:10182000062819D2DFE800F0160C11161616626FA2
:10183000DAF8001021F007011143CAF80010EAE7B6
:101840000121201D01F04AF903E00098012101F077
:10185000D5F905469DB100E001252E462078800689
:101860002BD5D4F88C00B0F1405F24D011DC10B33C
:10187000B0F1805F15D0B0F1005F10D116E0D4F860
:101880009020D9F8001021F007011143C9F8001089
:10189000E4E7B0F1804F0ED0B0F1A04F0BD001259E
:1018A0000AE00021201D01F019F903E0009802214F
:1018B00001F0A4F905468DB12E46207840062BD5BF
:1018C000D4F89800B0F5406F24D011DC10B3B0F517
:1018D000806F15D0B0F5006F10D116E0D4F88C20D1
:1018E000DAF8001021F0E0411143CAF80010E4E7F3
:1018F000B0F5805F0ED0B0F5A05F0BD001250AE0F7
:101900000021201D01F0EAF803E00098022101F017
:1019100075F905468DB12E46207800062BD5D4F8F2
:101920009C00B0F5C04F24D011DC10B3B0F5005FBF
:1019300015D0B0F5804F10D116E0D4F89820D9F822
:10194000001021F4E0511143C9F80010E4E7B0F5AC
:10195000004F0ED0B0F5204F0BD001250AE000213A
:10196000201D01F0BBF803E00098022101F046F9C8
:1019700005464DB12E46207800071ED5D4F88000CC
:10198000B0F5805F0AD00FE0D4F89C20D9F80010A1
:1019900021F460411143C9F80010ECE700980221DE
:1019A00001F02CF900B10126D4F88020DAF80010FB
:1019B00021F440511143CAF800102078C00613D515
:1019C000D4F89400B0F5807F05D10098022101F091
:1019D00015F900B10126D4F89420D9F8001021F4AB
:1019E00040711143C9F800102068000316D5D4F8DF
:1019F000A00038B1B0F5803F09D0B0F5003F0BD062
:101A000001250AE00021201D01F068F803E000989C
:101A1000022101F0F3F8054685B12E462068400307
:101A200022D5D4F88400B0F5801F11D0B0F5001F86
:101A300013D0B0F5401F15D0012514E0D4F8A02034
:101A4000D9F8001021F440311143C9F80010E5E73E
:101A5000386840F40030386004E00098012101F05B
:101A6000CDF8054655B12E462068C0031CD5E06C64
:101A700070B1B0F5803F10D0012514E0D4F8842077
:101A8000DAF8001021F440111143CAF80010EBE716
:101A9000386840F40030386004E00221201D01F075
:101AA0001DF80546CDB12E462068800005D500986A
:101AB000022101F0A3F800B10126206880031BD5A4
:101AC000E06FB8B1B0F5807F10D0B0F5007F11D0D5
:101AD000B0F5407F0ED001250DE02948E26C0838B2
:101AE000016821F4803111430160DDE7386840F47A
:101AF00000303860F5B32E462068C00207D5226F4B
:101B0000D8F8001021F000411143C8F800102068F7
:101B1000C00008D5D4F8B420DBF8001021F48041CF
:101B20001143CBF800102068800207D5A26ED8F8C8
:101B3000001021F080711143C8F8001020684000A7
:101B40000CD5DBF8001021F40041CBF80010DBF8D5
:101B50000010D4F8B8201143CBF8001020680028FA
:101B600007DA0748226D0838016821F04051114317
:101B7000016000E008E086B10120BDE8FC9F0000A4
:101B800054440258CFFFFF00E26FDAF8001021F44E
:101B900040711143CAF80010AEE70020EDE70000E5
:101BA0002DE9F05F04000F467ED0DFF83882D8F8C8
:101BB000000000F00F00B8420CD2D8F8001021F05D
:101BC0000F013943C8F80010D8F8000000F00F00EA
:101BD000B84269D12078844D40070AD52069296828
:101BE00001F07001884204D9296821F07001014395
:101BF000296020787C4E361D00070AD5606931685F
:101C000001F07001884204D9316821F0700101436C
:101C100031602078C0060AD5A069316801F4E0611E
:101C2000884204D9316821F4E061014331602078B1
:101C3000DFF8B4B180060BF1080B0CD5E16958460A
:101C4000DBF8002002F07002914204D9026822F011
:101C500070020A430260207880070AD5E06829688C
:101C600001F00F01884204D9296821F00F010143D6
:101C700029602078C0073ED05B49A26828681839DF
:101C800020F47060104328606068022818D0032890
:101C900019D00968012819D0490700294ADADFF864
:101CA00048A1AAF1080A00E044E0DAF8002022F096
:101CB00007020243CAF80020FFF7EAF8814612E063
:101CC00009688903E9E709688901E6E7C905E4E7E6
:101CD000FFF7DEF8A0EB090141F28830814202D91A
:101CE0000320BDE8F09F6168DAF8000000F03800DA
:101CF000B0EBC10FECD1207880070AD5E0682968E5
:101D000001F00F01884204D2296821F00F0101433C
:101D10002960D8F80010404601F00F01B9420BD9F4
:101D2000016821F00F0139430160006800F00F00E5
:101D3000B84201D00120D4E7207840070AD52069B5
:101D4000296801F07001884204D2296821F07001ED
:101D500001432960207800070AD56069316801F0E5
:101D60007001884204D2316821F070010143316072
:101D70002078C0060AD5A069316801F4E061884284
:101D800004D2316821F4E06101433160207880069B
:101D90000CD5E1695846DBF8002002F07002914250
:101DA00004D2026822F070020A43026000F06CF86C
:101DB0000E492A682B68C2F3032203F00F038A5CE2
:101DC000C95C02F01F0201F01F01D040084A20FA4E
:101DD00001F111600749086007480068BDE8F05F3D
:101DE000FFF792B80020005218440258AE350008A0
:101DF000100000240C0000240400002430B500F082
:101E000043F80B4A0B490C4B15681468C5F30322C1
:101E100004F00F048A5C095D02F01F0201F01F014B
:101E2000D040064A20FA01F119601060084630BD22
:101E300018440258AE350008100000240C0000249D
:101E400000B5FFF7DBFF05490968054AC1F3021138
:101E5000515C01F01F01C84000BD00001C44025845
:101E6000AE35000800B5FFF7C9FF05490968054A06
:101E7000C1F30221515C01F01F01C84000BD000008
:101E80001C440258AE350008454970B545480968FC
:101E9000434B103B11F0380208D00111082A03D03F
:101EA000102A0BD0182A0BD0084670BD1968890675
:101EB000FBD51968C1F3C101C84070BD3A4870BD77
:101EC0003749374D18310C1D24350A6809682668D2
:101ED0002D6802F0030406F00102C1F30511C5F3F9
:101EE000CC0515FB02F200EE102AB8EE400AE9B369
:101EF0002F4ADFED2E0AB7EE001A6CB1DFED2D1A76
:101F0000012C01D0022C43D002EE101A1068F8EE1A
:101F1000422A81EEA22A1EE01C68A40611D51B6885
:101F200001EE901A1168C3F3C103F8EE612AD8409C
:101F300001EE900AC1F30800F8EE611A81EEA22AC0
:101F40000BE001EE901ADFED1C2A00BFF8EE611ADB
:101F5000106882EEA12AC0F3080001EE900AF8EEA4
:101F6000611A40EE201A31EE810A00E015E022EEFF
:101F7000000A1068C0F34620401C00EE900AF8EEFC
:101F8000600A80EE201ABCEEC10A10EE100A70BD85
:101F900001EE901ADFED092AD8E7002070BD00009D
:101FA000104402580090D00300127A00000000395B
:101FB000304402580024744A0024744C0024F44A2B
:101FC0002DE9F05F04007CD0FF4F2078FE4D1837DC
:101FD000DFF8F493103DC00748D0D9F80000396805
:101FE00000F03800102815D0182803D101F00300A4
:101FF00002280FD06068B0F5803F12D010B1B0F564
:10200000A02F18D0286820F480302860286820F499
:10201000802009E02868800328D560680028D2D095
:1020200024E0286840F480302860606888B1FEF7BA
:102030002FFF064609E0286840F480202860F0E77A
:10204000FEF726FF801B64287ED828688003F7D51A
:102050000CE0FEF71DFF064605E000BFFEF718FF87
:10206000801B6428F0D828688003F7D4207841F2D8
:102070000308D54E0C3E800753D5D9F800003968C7
:1020800010F038000ED0182801D188070AD0E06877
:10209000A8B3296821F0190101432960FEF7F8FE71
:1020A00082461BE02868400702D5E06800288AD0F5
:1020B000FEF7E8FE40451BD82069402812D0316861
:1020C00000E0CCE021F47C3141EA0030306028E0CF
:1020D000FEF7DEFEA0EB0A000228B5D8286840070C
:1020E000F6D5E5E7306820F47C3040F40030EDE7C9
:1020F000207C316821F0FE4141EA0060E6E7FFE71D
:10210000286820F001002860FEF7C2FE824605E044
:10211000FEF7BEFEA0EB0A00022895D8286840070B
:10212000F6D42078C0065FD5D9F80000DFF898B261
:10213000396800F03800ABF1040B082812D01828D9
:1021400005D101F0030000E0EAE001280AD0E069CF
:102150000028286838D040F080002860FEF798FEFC
:10216000824623E02868C00523D5E069802876D11F
:102170001FE0206A202821D0316821F0F84141EA8F
:102180008060306030E000BF94F82010DBF8002061
:1021900022F07C5242EA0161CBF8001024E000BF3B
:1021A000FEF776FEA0EB0A00022896D82868C00544
:1021B000F6D5FEF767FE4045E6D8DAE7306820F04E
:1021C000F84040F08040DCE720F080002860FEF717
:1021D0005FFE064605E000BFFEF75AFE801B0228A0
:1021E0009BD82868C005F7D42078000729D5764801
:1021F0006169643000298046016811D041F0010115
:102200000160FEF745FE064605E000BFFEF740FE12
:10221000801B0228C9D8D8F800008007F6D510E046
:1022200021F001010160FEF733FE064605E000BF24
:10223000FEF72EFE801B022872D8D8F80000800717
:10224000F6D42078800623D5A0690028286810D00D
:1022500040F480502860FEF71BFE064605E02CE1A6
:10226000FEF716FE801B02285AD828688004F7D58E
:102270000EE020F480502860FEF70AFE064604E0D7
:10228000FEF706FE801B02284AD828688004F7D48F
:10229000207840074FD5DFF83481D8F8001041F49A
:1022A0008071C8F80010FEF7F3FD064605E000BF98
:1022B000FEF7EEFD801B642832D8D8F80000C00578
:1022C000F6D5414EA068603601280AD008B105282D
:1022D00013D0306820F001003060306820F0040036
:1022E00002E0306840F001003060A06841F2883AB6
:1022F00090B1FEF7CDFD80460AE0306840F0040062
:102300003060EEE7FEF7C4FDA0EB0801514507D8A9
:1023100030688007F6D50EE0FEF7BAFD804607E08C
:1023200084E000BFFEF7B4FDA0EB080151457DD865
:1023300030688007F6D4606AF0B3DFF88C80D9F893
:10234000001008F12008C1F3C20103296FD0022850
:10235000286820F08070286003D0FEF799FD0446BD
:1023600080E0FEF795FD064605E000BFFEF790FD14
:10237000801B022873D828688001F7D4E26A40F2F3
:10238000F331386854F8283F884340EA0210184374
:102390003860217B4FF4FE0C22894FF0FE47208AE3
:1023A0004902267D521E401EA1F5007189B20CEA39
:1023B0000040C2F3080200E081E01143761E0143B1
:1023C000014807EA066203E0104402580048025838
:1023D0001C3011433B4AC8F80010016821F001018C
:1023E000016011684FF6F876236AB14341EAC301F0
:1023F00011600168A26921F00C01114301600168BC
:10240000E26921F0020111430160016841F4803169
:102410000160016841F400310160016841F48021EC
:102420000160016841F00101016001E017E01DE079
:10243000286840F080702860FEF72AFD044604E01A
:10244000FEF726FD001B022809D828688001F7D571
:1024500035E000BFFEF71CFD001B022802D9032057
:10246000BDE8F09F28688001F4D428E0396801288D
:10247000D8F8000021D0A26A01F0030393421CD1D6
:10248000E26AC1F305118A4217D1216BC0F3080239
:10249000491E8A4211D1616BC0F34622491E914206
:1024A0000BD1A16BC0F30642491E914205D1E16BED
:1024B000C0F30660491E814201D00120D0E7002010
:1024C000CEE7000034440258401EB0F1807F10B5C2
:1024D00001D3012010BD4FF0E02460610F2160178F
:1024E00001F008F80020A0610721216110BD30B57E
:1024F00090F87C10012918D0012280F87C2024213A
:10250000C0F880100022202450F8601B0B680D6872
:1025100023F0005325F001050D60426050F8601C67
:102520000B6004620277104630BD022030BD704758
:1025300070B5044690F87C0001281DD0012284F873
:102540007C202420C4F8800020680568026822F0FE
:10255000010202602068826822F060620A438260A1
:10256000204600F0AFFC2268202100201560C4F84E
:10257000801084F87C0070BD022070BD70B50446E8
:1025800090F87C0001281DD0012284F87C202420B2
:10259000C4F8800020680568026822F00102026029
:1025A0002068826822F060420A438260204600F080
:1025B00089FC2268202100201560C4F8801084F86E
:1025C0007C0070BD022070BD7047704770470000EE
:1025D0002DE9F04103680446002540F60F06D8694E
:1025E00019689A68304209D186067DD501F0200627
:1025F00002F080573E4377D0E16E9EE0614E624F1D
:1026000016400F4037436FD0C70709D0CF0507D515
:1026100001271F62D4F8883043F00103C4F88830E2
:1026200083070AD5D30708D0276802233B62D4F872
:10263000883043F00403C4F8883043070AD5D30731
:1026400008D0276804233B62D4F8883043F00203A3
:10265000C4F8883003070CD501F02003334308D0B9
:10266000266808233362D4F8883043F00803C4F89E
:10267000883003050BD54B0109D526684FF400635C
:102680003362D4F8883043F02003C4F88830D4F89B
:102690008830002B34D0800609D501F0200002F0EC
:1026A0008051084303D0E16E09B120468847216874
:1026B000D4F888008968490602D410F0280F21D088
:1026C000204600F0CFFC20688168490615D5816856
:1026D00021F040018160A06F78B12C490165A06FA5
:1026E000FDF77CFF002800E012E009D0A06F016D2B
:1026F00000E02046BDE8F04108472046FFF766FFAE
:10270000BDE8F0812046FFF761FFC4F88850F7E785
:10271000C60209D5560207D54FF48010186220462C
:10272000BDE8F041FFF751BF060609D501F080066C
:1027300002F40002164303D0216F0029D9D1DFE74C
:1027400042060DD54A060BD51A682021204622F0F4
:1027500040021A60C4F88010256700F0E7F8CFE760
:10276000020206D54A0004D52046BDE8F041FFF735
:102770002BBFC001C4D50029C2DA2046BDE8F04114
:10278000FFF7D5BE01000010200100044F30000803
:1027900010B5040003D0D4F8800010B107E0012088
:1027A00010BD002084F87C00204600F027F824208B
:1027B000C4F880002068016821F001010160204612
:1027C00000F064FC0128EBD0A06A10B1204600F0B4
:1027D000ABFB2068416821F490414160206881682A
:1027E00021F02A0181602068016841F00101016047
:1027F0002046BDE8104000F0FBBB00002DE9F04191
:1028000086B0074614216846FDF79CFD4048022229
:10281000404D00243B6808383D49AB424ED10B681F
:1028200043F400230B60096801F40021059101685D
:1028300041F0080101600068082100F008000590DF
:1028400003208DE81500CDE9034133486946FEF7C2
:10285000FBF9324E3F2232494FF48068304686E819
:102860001600C6E903487461B461F46134627462AD
:10287000FDF7F6FF08B1FDF7B0FE284D4020284ACD
:102880007835BE671832B763E5E8022085E81101A4
:10289000EC602C6121486C61AC617830EC61083DE2
:1028A000FDF7DEFF08B1FDF798FE00227D673420BA
:1028B0001146AF63FEF764FB342023E0194DAB42B1
:1028C00022D10B6843F480130B60096801F4801176
:1028D0000591016841F00201016000680E2100F0DD
:1028E000020005904FF440508DE81500CDE90341FA
:1028F0000D486946FEF7A8F9002235201146FEF77B
:102900003FFB3520FEF72EFB06B0BDE8F08100004E
:10291000E8440258004C0040000C025830010024EA
:102920001000024000500040000402587047FEE7CB
:1029300010B50B4C002204212046FEF79DFA3220F0
:10294000FEF770F9012220460421FEF795FA3220A5
:10295000FEF768F9BDE8104002A000F0C3BD00001A
:1029600000080258415050310D0A0000054808B5D2
:10297000016841F001010160006800F00100009071
:1029800008BD0000D844025810B586B0142168462E
:10299000FDF7D8FC1948016841F0040101600168A5
:1029A00001F004010591016841F0800101600168B6
:1029B00001F080010591016841F0020101600168A8
:1029C00001F002010591016841F008010160006811
:1029D00001220B4C042100F0080005902046FEF770
:1029E0004BFA012102220420CDE90001CDE90212B7
:1029F00069462046FEF728F906B010BDE0440258AB
:102A0000000802581848002110B5164C0C224FF44B
:102A1000E1330460C0E90131C160C0E904128161A1
:102A2000C161016241628162FFF7B2FE08B1FDF748
:102A3000D4FD0D480021FFF7A1FD08B1FDF7CDFD44
:102A400009480021FFF774FD08B1FDF7C6FD0648EF
:102A5000FFF74DFD002803D0BDE81040FDF7BDBDD8
:102A600010BD0000004C0040180000241848002150
:102A700010B5164C0C224FF4E1330460C0E901316B
:102A8000C160C0E904128161C16101624162816279
:102A9000FFF77EFE08B1FDF7A0FD0D480021FFF70E
:102AA0006DFD08B1FDF799FD09480021FFF740FDD4
:102AB00008B1FDF792FD0648FFF719FD002803D085
:102AC000BDE81040FDF789BD10BD0000005000407A
:102AD000A4000024FEE77047704700002DE9F0478E
:102AE000454D044689464FF0000A2868C0438007D8
:102AF0000AD0414E283E306820F080603060FEF7FA
:102B0000C7F90746B04608E00120BDE8F08700BFDE
:102B1000FEF7BEF9C01B022867D8D8F800000001F4
:102B2000F6D4206829684FF4FE0721F47C313E0278
:102B300041EA00302860207AA389B4F804C040023A
:102B40002D4D2D495B1E227CACF1010C1035091D69
:102B5000A0F5007080B2521ECCF3080C07EA0343C4
:102B600040EA0C00184306EA026210432860086835
:102B7000626920F0C000104308600A68A06922F072
:102B8000200202430A60281D0A6822F010020A602F
:102B900002684FF6F873E4699A4342EAC40202609D
:102BA0000868B9F1000F40F010020A6011D00868FF
:102BB000B9F1010F11D040F400100860D8F80000FE
:102BC000444640F08060C8F80000FEF761F9054611
:102BD0000DE0086840F40020EFE740F48010ECE7D7
:102BE000FEF756F9401B022801D903208DE7206823
:102BF0000001F5D5504688E7284402582DE9F047F2
:102C0000454D044689464FF0000A2868C0438007B6
:102C10000AD0414E283E306820F080503060FEF7E8
:102C200037F90746B04608E00120BDE8F08700BF4D
:102C3000FEF72EF9C01B022867D8D8F800008000E4
:102C4000F6D4208829684FF4FE0721F07C713E02FB
:102C500041EA00502860207AA389B4F804C04002F9
:102C60002D4D2D495B1E227CACF1010C1835091D40
:102C7000A0F5007080B2521ECCF3080C07EA0343A3
:102C800040EA0C00184306EA026210432860086814
:102C9000626920F44060104308600A68A06922F469
:102CA000007202430A60281D0A6822F480720A60DA
:102CB00002684FF6F873E4699A4342EAC40202607C
:102CC0000868B9F1000F40F480720A6011D00868FA
:102CD000B9F1010F11D040F080700860D8F8000001
:102CE000444640F08050C8F80000FEF7D1F8054691
:102CF0000DE0086840F48000EFE740F40000ECE7E6
:102D0000FEF7C6F8401B022801D903208DE7206892
:102D10008000F5D5504688E7284402587047FEF7F2
:102D2000BDB8000030B5CBB04C212FA8FDF70AFB91
:102D3000202142A8FDF706FBBC216846FDF702FBF7
:102D40000220FEF74FF91E491E480A6822F00102D0
:102D50000A6009680168002421F4404141F480417F
:102D60000160016801F440414A9101688904FCD581
:102D7000022539950C20389501223C953D9511048A
:102D8000CDE93A50CDE93E50CDE92F21CDE940546F
:102D90002FA8FFF715F942AA3F20032182E813006C
:102DA0000121459442A84694479448944994FEF7DB
:102DB000F7FE684600951D94FEF794FA4BB030BDBF
:102DC0002C040058184802582E48F0B52E4A0168C5
:102DD00041F470010160106800F00F00072804D270
:102DE000106820F00F00C01D106028490020274CFB
:102DF00010340B68264D43F001030B6020600B6814
:102E00002B400B60136803F00F03072B04D91368E2
:102E100023F00F03DB1D13601C4C1E4A18341E4B9D
:102E2000261D371D2060194C1C4D28343060261D8E
:102E30003860371D23603B1D35601C1D3A60251D21
:102E40002E1D1860331D22602860326018600A68E9
:102E50000E4B134C22F4802260330A601860206805
:102E60006FF30F00B0F1005F03D20E490120C1F8EB
:102E7000080143F2D2000C49024B4A03803B086030
:102E80001A60F0BD88ED00E00020005200440258B6
:102E90007FEDF6EA80020101000202020000FF015C
:102EA0000010005C00800051004000520148FFF714
:102EB0008FBB0000180000240148FFF789BB000009
:102EC000A40000243FB514A1D1E9002314A1CDE949
:102ED0000023D1E90021CDE90221416EB9B1016899
:102EE00002AC8A688968C2F34262490F1DF801503A
:102EF000615C2D01B5FBF1F1A0F86A101DF802101C
:102F0000A25C0901B1FBF2F1A0F868103FBD0121FC
:102F1000A0F86A10F8E700000101010307010000B2
:102F2000080402040801010190F82810C90706D01E
:102F30000168C36A4A6822F400321A434A6090F872
:102F40002810890706D50168036B4A6822F480328D
:102F50001A434A6090F82810490706D50168436B68
:102F60004A6822F480221A434A6090F82810090720
:102F700006D50168836B4A6822F400421A434A600E
:102F800090F82810C90606D50168C36B8A6822F438
:102F900080521A438A6090F82810890606D5016885
:102FA000036C8A6822F400521A438A6090F8281051
:102FB000490611D50168436C4A6822F480121A430D
:102FC0004A60416CB1F5801F06D10168836C4A6884
:102FD00022F4C0021A434A6090F82810090606D568
:102FE0000168C26C486820F40020104348607047B4
:102FF000F8B500260446C0F88860FDF749FF05468D
:1030000020686FF07E470068000708D500222B4635
:103010004FF400112046009700F010FA60B92068C4
:10302000006840070AD500222B464FF48001204655
:10303000009700F003FA08B10320F8BD2020C4F87F
:10304000800084F87C60C4F884000020F8BD10B5CE
:10305000806B0021A0F85E10A0F85610FFF7B6FABA
:1030600010BD000030B501682023074D00240A6818
:1030700022F490720A6001688A682A408A60C0F867
:103080008430C46630BD0000FEFFFFEF2DE9F04341
:1030900004468068D94F87B02268D4E90465E369A3
:1030A000616E304316681D432843D54B002501430C
:1030B0003E400E4316602068E268416821F44051AA
:1030C000114341602268A1699A4201D0206A0143FC
:1030D0009668DFF830C3CC4FCC4806EA0C060E43A6
:1030E00096602168666ACA6A22F00F023243CA6299
:1030F0002268BA420ED1006800F03800182873D058
:1031000047DCB8B3082879D010286FD178E0282898
:103110007ED17BE0BE498A4209D1006800F00700F9
:10312000062875D2DFE800F0546A6C6E7072B949F7
:103130008A4209D1006800F00700062868D2DFE85B
:1031400000F0475D5F616365B3498A4209D1006859
:1031500000F0070006285BD2DFE800F03A50525436
:103160005658AE498A420BD1006800F00700062885
:103170004ED200E010E0DFE800F02B414345474924
:10318000A7498A420AD1006800F03800182839D0CF
:10319000B7DD2028BBD13CE001203AE0A1498A42BA
:1031A00009D1006800F00700062831D2DFE800F0FE
:1031B0001026282A2C2E9C498A420BD1006800F048
:1031C0000700062824D2DFE800F003191B1D1F2189
:1031D00000201EE09A421BD18C48001D006800F0C0
:1031E0000700062814D202E00CE007E010E0DFE858
:1031F00000F0030507090B0D02200AE0042008E097
:10320000082006E0102004E0202002E0402000E03A
:1032100080208649DFF818829A42864A4FF400439C
:103220004FEA21174FF000064ED110281AD006DCC5
:10323000022809D004280BD008287DD10DE02028D1
:103240003ED0402878D13DE0FDF7F6FE014610E083
:103250006846FDF703FF01990BE003A8FDF7A0FF07
:10326000049906E01068800604D51068C0F3C10018
:10327000C140C1B3606A676838F8102007EB4703A4
:10328000B1FBF2F0834257D8B0EB073F54D800238C
:1032900008461946FDF71EF80902020241EA1061CC
:1032A00070084FEA370010183A4671410023FDF7C5
:1032B00011F8614AA0F5407191423DD821684CE077
:1032C0003946D7E71946D5E7D4F81CC04FF6EF7951
:1032D0009C4552D108281AD006DC60B101280DD0D7
:1032E000042829D10EE039E0102815D0202840D03C
:1032F00040287CD13FE0FEF7A3FD01E0FEF7B2FDE0
:10330000014610E06846FDF7A9FE01990BE003A80D
:10331000FDF746FF049906E01068800604D51068A2
:10332000C0F3C100C140C9B1636A606838F81330A6
:10333000B1FBF3F1490000E059E001EB5001B1FBB2
:10334000F0F080B2A0F11001494550D84FF6F0736B
:103350002168C0F3420218401043C8600120A4F85D
:103360006A00A4F868002846E666266707B0BDE84C
:10337000F0833946D8E71946D6E7082819D005DC86
:1033800058B101280CD0042831D10DE0102815D0F7
:1033900020282ED040282AD12DE0FEF751FD01E053
:1033A000FEF760FD014610E06846FDF757FE019903
:1033B0000BE003A8FDF7F4FE049906E01068800610
:1033C00005D51068C0F3C100C1400029C6D0636AAA
:1033D000606838F81330B1FBF3F101EB5001B1FB39
:1033E000F0F080B2A0F1100149457FF667AF0125EA
:1033F000B4E73946EBE71946E9E70000F369FFCF88
:10340000000C0058FFF4FF11001001405444025812
:103410000044004000480040004C00400050004084
:103420000014014000780040007C00400090D00370
:103430008E35000800440258FFFC0F002DE9F047CC
:103440009A4617460E460446089D4FF000094FF075
:10345000200839E0681C37D0FDF71AFDA0EB0A0000
:10346000A84222D80DB32068016849072CD5C0694D
:10347000C043000528D423684FF400611962216815
:103480000B6823F4D0730B6021688B6823F0010371
:103490008B60C4F88080C4F88480C4F8888000BF42
:1034A000032084F87C90BDE8F08721680B6823F442
:1034B000D0730B6021688B6823F001038B60C4F824
:1034C0008080C4F88480EBE72068C06936EA000099
:1034D00004D00020B842BDD00020E4E70120F9E785
:1034E000FEE70000014A024900F024B859350008FF
:1034F00014000024090700284FEA116104DB00F1E1
:10350000E02080F80014704700F00F0000F1E02088
:1035100080F8141D704702E008C8121F08C1002A75
:10352000FAD170477047002001E001C1121F002A44
:10353000FBD170472DE9F04116460F4604460025A1
:1035400003E03946B047641C6D1C20780028F8D190
:103550002846BDE8F081000004490A685206FCD5FF
:10356000024AC1B20C321160704700001C4C00408E
:10357000FDF79CFCFFF7D6FBFFF706FAFFF7F6F91D
:10358000FFF740FAFFF772FAFFF7D2F9FCE7010004
:1035900002000400060008000A000C0010002000D1
:1035A0004000800000010006101600061016000002
:1035B00000000102030401020304060708090000D9
:1035C000E03500080000002418000000163500084F
:1035D000F835000818000024080600002635000809
:1035E0000100000010000000000000000090D00367
:0835F0000090D0030000000070
:040000050800029954
:00000001FF
